:100000000C94F3020C945C250C9435250C941B0382
:100010000C941B030C941B030C941B030C941B03E8
:100020000C941B030C941B030C941B030C9483254E
:100030000C941B030C941B030C941B030C941B03C8
:100040000C94EB240C941B030C94B9240C9493246F
:100050000C941B030C941B030C941B030C941B03A8
:100060000C941B030C941B030000000025002800C7
:100070002B0000000000240027002A0001020408D1
:100080001020408001020408102001020408102002
:10009000040404040404040402020202020203032E
:1000A000030303034602000000FF0800053E5B4F08
:1000B0005B3E053E6B4F6B3E051C3E7C3E1C0518AF
:1000C0003C7E3C18051C577D571C051C5E7F5E1C42
:1000D0000400183C1805FFE7C3E7FF0400182418C4
:1000E00005FFE7DBE7FF0530483A060E05262979CC
:1000F000292605407F05050705407F05253F055A50
:100100003CE73C5A057F3E1C1C0805081C1C3E7F32
:100110000514227F221405FFFFFFFFFF05F0F0F01A
:10012000F0F003FFFFFF05000000FFFF050F0F0FBA
:100130000F0F0508047E04080510207E2010050816
:10014000082A1C0805081C2A080805AA005500AA48
:1001500005AA55AA55AA0530383E383005060E3E88
:100160000E06020000015F0307000705147F147FDD
:100170001405444AFF4A320563130864630536498F
:100180004936480107033E41410341413E05082AE3
:100190001C2A080508083E08080260E00408080850
:1001A00008026060056010080403053E5149453EA1
:1001B0000304027F057149494946054149494936C9
:1001C000050F0808087F054F49494931053E49494F
:1001D000493005030101017F0536494949360506C5
:1001E0004949493E026C6C026CEC03081422041469
:1001F00014141403221408050159090906053E4187
:100200005D594E057E0909097E057F494949360534
:100210003E41414141057F4141413E057F494949B8
:1002200041057F09090901053E41414979057F08DA
:1002300008087F03417F4105304141413F057F0868
:10024000142241057F40404040057F020C027F059B
:100250007F0408107F053E4141413E057F090909A1
:1002600006053E4141617E057F091929460546493B
:100270004949310501017F0101053F4040403F05EB
:100280001F2040201F053F4038403F0563140814DD
:1002900063050304780403056151494543037F4125
:1002A000410503040810600341417F050402010277
:1002B00004048080808003010204043844447C04E8
:1002C0007F4444380438444444043844447F043868
:1002D00054545804047E05010418A4A47C047F042B
:1002E0000478017D0384857C047F102844017F0508
:1002F0007C04780478047C0404780438444438048A
:10030000FC24241804182424FC047C040408045845
:1003100054543403047F04043C40407C041C2040BB
:100320007C053C4030403C046C10106C041CA0A0C8
:100330007C046454544C0408364141017F0441411B
:1003400036080402010201057F4141417F053E5507
:10035000555541053844443844057C2A2A3E140545
:100360007E0202060605027E027E020563554941B1
:1003700063053844443C0405407E201E20050602E7
:100380007E0202086313086463006060052A2A2A5B
:100390002A2A03514A4403444A51050000FF01033D
:1003A00003E080FF053612362436030205020218E8
:1003B00018021010053040FF0101041F01011E004A
:1003C0000000000901017F017F020C027F00000094
:1003D0000000000100017D0418247E2404447E45B1
:1003E0004105221C141C2205012A7C2A01017704E4
:1003F0004E55553903020002077E81BDA5A5817EB9
:100400000326292F0508142A1422040808081803B3
:10041000080808077E81BD95A9817E0501010101BB
:10042000010302050203242E2403191512031515D6
:100430000A02020104F82040780506097F017F02C4
:100440001818040080A0C003121F100326292605D7
:1004500022142A140808402F1008041E117C08409A
:100460002F10080462554C0915553F1008041E1141
:100470007C053048484D40057815161478057814E9
:10048000161578057A1514157A0578161516790556
:100490007815141578057814151478077E09097FE6
:1004A000494941059EA1612121057C5455464405D9
:1004B0007C54564544057E55544546057C55544567
:1004C0004403457E4403447E4503467D4603457C04
:1004D0004505087F49413E057C0A11227D053844C7
:1004E000454638053844464538053A4544453A05B9
:1004F0003846454639053845444538052214081420
:1005000022057C625A463E053C4041423C053C4047
:1005100042413C053C4241423C053C4140413C0596
:1005200002047A0502043F12120C057E49494E303E
:10053000043845467C043844467D043846457E04EC
:100540003A45467D043845447D04304A4D7A0720BB
:10055000545438545458049CA262220438555658B6
:100560000438545659043856555A043855545902CB
:10057000017A027A01030279020302780204304B05
:100580004B3C047A090A710430494A300430484A25
:100590003104304A49320432494A31043944443939
:1005A0000508082A08080438544C380438414278B1
:1005B0000438404279043842417A043A40407A048F
:1005C00018A0A27904FC282810041AA0A07A000020
:1005D0000008000201000003040700000000000002
:1005E00000003F26692C11241FBECFEFD8E0DEBFEC
:1005F000CDBF11E0A0E0B1E0E0EBF1E602C0059074
:100600000D92A238B107D9F722E0A2E8B1E001C00B
:100610001D92A73BB207E1F712E0C2EFD2E004C09F
:100620002197FE010E949A2EC13FD107C9F70E946F
:10063000E6260C94CB300C940000829590E09C014F
:1006400035952795359527952373880F991F880F22
:10065000991F8C7C282B30E0C9019595879585756D
:10066000220F331F2A7A822B0895CF92DF92EF92C6
:10067000FF920F931F93FC0180A5882331F0A5A161
:10068000B6A19D967C936E939C9780A5882331F0AC
:10069000A5A1B6A157965C934E93569780A5882343
:1006A00071F0A5A1B6A118963C932E9317971A96B0
:1006B0003C932E9319971C961C930E931B9780A521
:1006C000882379F005A0F6A1E02DE114F10419F4D6
:1006D000EE24E394F12CF18EE08ED38EC28E16863A
:1006E00015861F910F91FF90EF90DF90CF900895A6
:1006F000CF92DF92EF92FF92DC01A03282E0B80746
:10070000D4F5A53BB10514F0A4EBB0E040917C0218
:1007100028E830E0241B310947FD3395220F331FB1
:10072000220F331F6901330FEE08FF0840917D024D
:1007300028E532E0241B310947FD3395220F331F92
:10074000220F331F032E000C440B550B2C193D09AF
:100750004E095F09B7FF02C0B0E0A0E00E941E2E64
:1007600024EB30E040E050E00E94F42DC20ED31E96
:10077000E41EF51ED601E0917B02EC3080F520915D
:100780007C0288E890E0821B910927FD9395880FF1
:10079000991F880F991FA817B90784F020917D022F
:1007A00088E592E0821B910927FD9395880F991F98
:1007B000880F991FA817B9070CF4CD010297880F6D
:1007C000991F4FB7F8942E2F30E0F901EE0FFF1F5D
:1007D000E20FF31FED5BFD4F928381834FBFFF90CC
:1007E000EF90DF90CF900895CF93DF93262F26953B
:1007F000382F70E0680F791FFC018E2F831B821742
:1008000050F4819161507109DB019C91EF012197B6
:1008100098838C93F2CFDF91CF910895482FFC01FC
:100820008E2F841B8617E0F4219130E0C901959545
:1008300087958575220F331F2A7A822B90E09C01C1
:1008400035952795359527952373880F991F880F20
:10085000991F8C7C822B8295DF0111978C93E0CFBE
:10086000089580919A0190919B01019690939B012C
:1008700080939A0108950895AF92BF92CF92DF922C
:10088000EF92FF920F931F93CF93DF936C017B0145
:100890008B01040F151FEB015E01AE18BF08C017D6
:1008A000D10759F06991D601ED91FC910190F08149
:1008B000E02DC6010995892B79F7C501DF91CF910C
:1008C0001F910F91FF90EF90DF90CF90BF90AF906E
:1008D0000895FC01538D448D252F30E0842F90E046
:1008E000821B930B541710F0CF960895019708952B
:1008F000FC01918D828D981761F0A28DAE0FBF2FF4
:10090000B11D5D968C91928D9F5F9F73928F90E049
:1009100008958FEF9FEF0895FC01918D828D9817B8
:1009200031F0828DE80FF11D858D90E008958FEFF5
:100930009FEF0895FC01918D228D892F90E0805CBE
:100940009F4F821B91098F739927089586EA91E042
:100950000E949A0421E0892B09F420E0822F089557
:1009600080E090E0892B29F00E94A60481110C946C
:1009700000000895FC01A48DA80FB92FB11DA35A42
:10098000BF4F2C91848D90E001968F739927848FAF
:10099000A689B7892C93A089B1898C9183708064D2
:1009A0008C93938D848D981306C00288F389E02D73
:1009B00080818F7D80830895EF92FF920F931F9324
:1009C000CF93DF93EC0181E0888F9B8D8C8D981302
:1009D0001AC0E889F989808185FF15C09FB7F8940E
:1009E000EE89FF896083E889F9898081837080645A
:1009F00080839FBF81E090E0DF91CF911F910F91A5
:100A0000FF90EF900895F62E0B8D10E00F5F1F4FB3
:100A10000F731127E02E8C8D8E110CC00FB607FCC2
:100A2000FACFE889F989808185FFF5CFCE010E9450
:100A3000BA04F1CFEB8DEC0FFD2FF11DE35AFF4F00
:100A4000F0829FB7F8940B8FEA89FB8980818062DE
:100A5000CFCFCF93DF93EC01888D8823B9F0AA899B
:100A6000BB89E889F9898C9185FD03C0808186FD69
:100A70000DC00FB607FCF7CF8C9185FFF2CF8081B8
:100A800085FFEDCFCE010E94BA04E9CFDF91CF916F
:100A9000089590E0FC01E253FA4F2491FC01E458E0
:100AA000FF4F3491FC01E057FF4FE491EE23C9F072
:100AB000222339F0233001F1A8F4213019F122303A
:100AC00029F1F0E0EE0FFF1FE859FF4FA591B49117
:100AD0008FB7F894EC91611126C030953E233C937A
:100AE0008FBF08952730A9F02830C9F0243049F786
:100AF000809180008F7D03C0809180008F778093EC
:100B00008000DFCF84B58F7784BDDBCF84B58F7D48
:100B1000FBCF8091B0008F778093B000D2CF8091CF
:100B2000B0008F7DF9CF3E2BDACFCF93DF9390E0EB
:100B3000FC01E458FF4F249180579F4FFC018491A2
:100B40008823D1F090E0880F991FFC01EE58FF4FE9
:100B5000A591B491FC01E859FF4FC591D491611161
:100B60000EC09FB7F8948C91E22FE0958E238C9362
:100B70002881E223E8839FBFDF91CF9108958FB74B
:100B8000F894EC91E22BEC938FBFF6CF2FB7F8944B
:100B900060919501709196018091970190919801D3
:100BA0002FBF08950F931F930E94C6056093AE0157
:100BB0007093AF018093B0019093B10186EA91E008
:100BC0000E94780497FF1DC00E94C6050091AE01E7
:100BD0001091AF012091B0013091B101601B710BF8
:100BE000820B930B0091AA011091AB012091AC01F3
:100BF0003091AD016017710782079307F8F28FEF0C
:100C00009FEF1F910F9108950895CF92DF92EF9279
:100C1000FF921F93CF93DF93DC0158961C92589755
:100C200088E059968C9359975A961C925A975C96DD
:100C30001C921E925B978FEF90E05E969C938E9332
:100C40005D9790961C921E925F9756968D919C91FF
:100C50005797009709F478C0FC012491263409F0D5
:100C600031C03196E491E13009F453C022E030E024
:100C7000E23021F5FC01329624913196E49130E086
:100C8000322F22272E0F311D5C963C932E935B97BB
:100C9000FC01349624913196E49130E0322F2227E2
:100CA0002E0F311D5E963C932E935D97FC01369678
:100CB000E4915996EC93599727E030E090963C9355
:100CC0002E935F975F96CD90DC909097F12CE12C5E
:100CD0005B962D913C915C975D96CD91DC915E97F2
:100CE00010E0C217D30770F1FC01EC0DFD1D44911B
:100CF000141708F4142F50E070E060E04F5F5F4F6E
:100D00006F4F7F4FC40ED51EE61EF71E2F5F3F4F5D
:100D1000E8CFFC013296E491F0E05C96FC93EE9310
:100D20005B97FC013396E491F0E05E96FC93EE93C2
:100D30005D97FC013496E4915996EC93599725E020
:100D400030E0BCCF5A961C93DF91CF911F91FF905A
:100D5000EF90DF90CF900895FC018385681738F5F8
:100D60002485358579E0679F200D311D112484810C
:100D700050E09381992371F0882331F087E090E06F
:100D8000FC01E41BF50BAF01240F351FF901808135
:100D90000C941D03882331F087E090E0BC01641BB4
:100DA000750BAB01240F351FF9018081089580E098
:100DB00008958F929F92AF92BF92CF92DF92EF925F
:100DC000FF92CF93DF93FC01242F30E083818823AF
:100DD00009F447C087E090E0821B930B91E001C0CB
:100DE000990F8A95EAF78385681708F040C0248533
:100DF0003585A90189E0689F400D511D1124BA0174
:100E0000E48130E020E080E0A7E0B0E0C12CD12C0C
:100E10007601C394F22FAD01421B530BE11101C0C7
:100E2000A901460F571FEA014881492351F04601A5
:100E3000570104C0880C991CAA1CBB1CFA95D2F758
:100E400088292F5F3F4F2830310521F7DF91CF915F
:100E5000FF90EF90DF90CF90BF90AF909F908F90DA
:100E6000089591E001C0990F4A95EAF7BCCF80E060
:100E7000EDCFFC01228121110C94D9060C94AC0613
:100E8000462F47706695669566950C943907FC0168
:100E9000848D90A1A6A5B7A591FD15C0882381F0EA
:100EA000808D918D0597A9F481E024A535A52A1799
:100EB0003B0709F080E080AB1197B7A7A6A708957C
:100EC000828D938DEFCF882379F0808D918D05975A
:100ED00059F7CD01019697A786A781E011969C91BD
:100EE000911180E080AB0895828D938DF0CFFC014D
:100EF000868997898230910591F42389348936A3B4
:100F000025A331A720A78230910561F42189328978
:100F100033A722A7029749F08FEF87A3089521896D
:100F20003289EDCF23893489F3CF81E0F6CFCF9397
:100F3000DF9300D0CDB7DEB769831A82DC01ED9173
:100F4000FC910084F185E02DBE016F5F7F4F099514
:100F500081E090E00F900F90DF91CF91089590E0A5
:100F600080E00895CF92DF92EF92FF920F931F934C
:100F7000CF93DF93EC0188858823A1F080918F01C6
:100F8000882361F08FB7F89490918F01913041F5EB
:100F90009DB390938E019DB39DBB8FBF80E58CBDAB
:100FA00081E08DBD60E08F810E944905888588239E
:100FB000D1F030E020E08B8590E0880F991F281752
:100FC0003907C8F5EE85FF85E20FF31F80818EBDDE
:100FD00000000DB407FEFDCF8EB52F5F3F4FEBCF66
:100FE00080938E01DBCF10E000E08B8590E0880FCE
:100FF000991F08171907F8F4EE85FF85E00FF11F18
:10100000E080DE80CD8088E0F82E6E2D661F66279A
:10101000661F8C2D0E944905EE0C61E08D2D0E940B
:10102000490560E08D2D0E944905FA94F110EDCF3D
:101030000F5F1F4FDACF61E08F810E9449058885DD
:10104000882371F080918F01882351F09FB7F89425
:1010500020918F0180918E01213059F48DBB9FBF6B
:10106000DF91CF911F910F91FF90EF90DF90CF9084
:1010700008958FBFF5CF42E050E06DE471E086EA5D
:1010800091E00C943C04CF93DF93FC01019000208D
:10109000E9F73197AF01481B590BBC0186EA91E093
:1010A0000E943C04EC010E943B088C0F9D1FDF91C5
:1010B000CF910895CF93DF932091790230917A02F6
:1010C00062177307A0F49B01C0917502D09176025C
:1010D000FC0160817181CE01820F931F0E94B130AB
:1010E000009729F08C1B9D0BDF91CF9108958FEF16
:1010F0009FEFFACFFC0124813581232B31F421E0CD
:10110000FB01672B49F4822F08958081918161153D
:10111000710539F421E0FC0180818823A1F320E0EE
:10112000F2CF0E94923021E0892B69F3F8CF0F9320
:101130001F93CF93DF938C01EB01FC0180819181A0
:101140000097E1F06881798161157105A9F042810C
:1011500053812C813D814217530770F00E949B30D0
:101160008C819D81F801958384831D821C82DF918F
:10117000CF911F910F9108950E943C2F88819981F2
:10118000F801918380838A819B81938382838C8100
:101190009D8195838483198218821B821A82E5CFF0
:1011A000CF93DF93EC0188819981009711F00E9421
:1011B0003C2F198218821D821C821B821A82DF91A9
:1011C000CF910895FC0180819181009711F00C94DA
:1011D0003C2F08950F931F93CF93FC01A081B18101
:1011E0005A96CC9186A9C80F83A98C17A0F48F01B9
:1011F00084A995A9009711F00E943C2FF801C3AB78
:101200008C2F90E0009711F481E090E00E94A02ED6
:10121000F80195AB84ABCF911F910F9108950F9377
:101220001F93CF93DF93EC0188819981009759F048
:101230002A813B812617370730F081E0DF91CF917B
:101240001F910F9108958B016F5F7F4F0E94C52FF3
:10125000009759F0998388831B830A832C813D81F1
:10126000232B59F7FC011082E8CF80E0E7CFEF9203
:10127000FF920F931F93CF93DF936115710541F494
:1012800080E0DF91CF911F910F91FF90EF90089533
:1012900041155105B1F07B01EC010C811D81040F5A
:1012A000151FB8010E940F09882351F32881398145
:1012B0008C819D81B701820F931F0E949B301D83FB
:1012C0000C8381E0DECFCF93DF93EC01FB01019033
:1012D0000020E9F73197AF01461B570B0E943709F1
:1012E000811103C0CE010E94D008CE01DF91CF91C1
:1012F0000895CF93DF93EC01FB0144815581608118
:1013000071810E943709811103C0CE010E94D0086B
:10131000CE01DF91CF910895EF92FF920F931F932B
:10132000CF93DF93EC017B018A01BA010E940F0980
:1013300081110BC0CE010E94D008CE01DF91CF9168
:101340001F910F91FF90EF9008951D830C83B701BB
:10135000888199810E949B30F0CFFC01118210821C
:101360001382128215821482FB0101900020E9F79A
:101370003197AF01461B570B0C948C09CF92DF922B
:10138000EF92FF920F931F93CF93DF937C016B013A
:101390008A014617570720F48D2D6A01062F182F52
:1013A0006FE471E0C7010E94AD09C0917902D0914C
:1013B0007A02CC16DD0638F50C171D0708F4E80193
:1013C000E0917502F0917602EC0FFD1F1081108202
:1013D00060917502709176026C0D7D1D611571052D
:1013E000E1F0FB0101900020E9F73197AF01461BC6
:1013F000570BC7010E948C0980917502909176026B
:10140000C80FD91F1883C701DF91CF911F910F918A
:10141000FF90EF90DF90CF900895C7010E94D00811
:10142000EBCFFC01438550E0440F551F70E060E0B6
:10143000868597850C948B30BF92CF92DF92EF9286
:10144000FF920F931F93CF93DF93FC0123856217C5
:1014500008F04EC0EC01F9E06F9F70011124D12C0F
:10146000C12C062F10E0BB24B394BC0CEC85FD8589
:10147000EE0DFF1D808590E00C2C02C095958795A0
:101480000A94E2F780FF27C0CE010E94110A8B85E3
:101490008150990B801B910B880F991F2E853F85DA
:1014A000820F931FFC01B082EC85FD85EE0DFF1DC0
:1014B000EC0DFD1D40818B858150990B801B910B9C
:1014C000880F991F2E853F85820F931FFC01418352
:1014D000CE010E94B207FFEFCF1ADF0A88E0C816DC
:1014E000D10409F68C859D85E80EF91EF70110865A
:1014F000DF91CF911F910F91FF90EF90DF90CF90F0
:10150000BF9008950F931F93CF93DF93EC01162F95
:10151000042F822F9B8191110E941D0399E0199F36
:1015200090011124AC85BD85A20FB31F602F70E020
:101530009C8147E050E0461B570B911101C0AB0165
:10154000A40FB51F8C93EC85FD85E20FF31F20855A
:101550008C818823F1F047E050E0461B570B81E077
:1015600090E0A0E0B0E004C0880F991FAA1FBB1F45
:101570004A95D2F7822B80878C89882321F0612FAE
:10158000CE010E941C0A81E0DF91CF911F910F9143
:10159000089581E090E0A0E0B0E004C0880F991FBA
:1015A000AA1FBB1F0A95D2F7E5CF9F92AF92BF92B9
:1015B000CF92DF92EF92FF920F931F93CF93DF931F
:1015C000FC0189E0689FE001112481E090E0A0E047
:1015D000B0E06C017D01042E04C0CC0CDD1CEE1CBF
:1015E000FF1C0A94D2F7BC2C7C2D709507E010E00C
:1015F000041B110904C0880F991FAA1FBB1F0A955D
:10160000D2F7A82E382F309590E080E0022F10E01E
:1016100027E0E22EF12CAC01A485B585AC0FBD1FEF
:10162000248193806801082E02C0D594C7940A943F
:10163000E2F7C0FE2AC0222319F0A701481B590B6C
:10164000A40FB51F2C914B2D91104A2D242B2C93B8
:10165000019688309105F9F684859585C80FD91FC4
:101660008FEF88878489882319F0CF010E941C0A94
:1016700081E0DF91CF911F910F91FF90EF90DF906C
:10168000CF90BF90AF909F900895222319F0A701AB
:10169000481B590BA40FB51F2C91472F9110432FB6
:1016A0002423D5CFFC0152813385552321F06317C4
:1016B00030F40C94D50A631710F40C94820A80E07D
:1016C0000895242F462F477033E0769567953A9515
:1016D000E1F70C94520BFC0152813385552331F014
:1016E000631750F4483041F00C94820A631720F4D9
:1016F000483011F00C94D50A80E00895CF92DF9223
:10170000EF92FF920F931F93CF93DF93FC01722F01
:1017100082815385882309F45DC0651708F0BEC037
:10172000283009F4BBC009E0609F70011124848552
:1017300095858E0D9F1D50E0A22FB0E024812223BD
:10174000B9F127E030E0E901C41BD50BAE012A1B3B
:101750003B0B480F591FEA014881820F931FEC0190
:10176000488384859585E701C80FD91F2885848122
:10177000882301F147E050E04A1B5B0B81E090E0D9
:10178000A0E0B0E004C0880F991FAA1FBB1F4A95B4
:10179000D2F7822B88878489811118C081E0DF917C
:1017A000CF911F910F91FF90EF90DF90CF90089510
:1017B0009D01CFCF81E090E0A0E0B0E004C0880FB1
:1017C000991FAA1FBB1F7A95D2F7E3CFCF010E94C2
:1017D0001C0AE4CFA42FB0E09381992309F44FC0F1
:1017E00027E030E02A1B3B0B91E001C0990F2A95BE
:1017F000EAF76517A0F6783091F2D9E06D9FA00165
:10180000112401E010E020E030E068017901072EAA
:1018100004C0CC0CDD1CEE1CFF1C0A94D2F7DC2D9E
:10182000CC2DC095A7E0B0E0A71BB10904C0000F04
:10183000111F221F331FAA95D2F7F02E009530E01A
:1018400020E0A485B585A40FB51FA20FB31F8C910E
:101850007381182F1923D9F0711117C07D2F872B91
:101860008C932F5F3F4F2830310559F7848595853C
:10187000480F591F8FEFDA0118968C938CCF91E0A7
:1018800001C0990F4A95EAF7B4CF7F2DE8CF7111C7
:1018900003C07C2F8723E4CF702FFCCF80E07FCF65
:1018A0008F929F92AF92BF92CF92DF92EF92FF9270
:1018B0000F931F93CF93DF93CDB7DEB728970FB663
:1018C000F894DEBF0FBECDBF8C01D62E29E0629FFB
:1018D00070011124FA013197E730F10558F4ED5801
:1018E000F34F0C949A2EC60CF80C2E0D650DA60D18
:1018F000E60D060EDC0112968C918823C1F130E0D2
:1019000020E0D8011C96ED91FC911D97EE0DFF1D76
:10191000E20FF31F808113969C91992331F190E09F
:101920009595879580832F5F3F4F2830310549F784
:10193000F80184859585E80EF91E8FEFD70118967A
:101940008C9381E028960FB6F894DEBF0FBECDBF12
:10195000DF91CF911F910F91FF90EF90DF90CF908B
:10196000BF90AF909F908F900895880FDBCF87E056
:1019700090E0D8011C96ED91FC91EE0DFF1DE80F53
:10198000F91F208121830197A0F7D2CFFC0182812A
:101990008823E1F030E020E0D8011C96ED91FC9125
:1019A0001D97EE0DFF1DE20FF31F808113969C9192
:1019B000992341F0880F80832F5F3F4F28303105F6
:1019C00059F7B6CF90E095958795F5CF81E090E0F7
:1019D000D8011C96ED91FC91EE0DFF1DE80FF91F4B
:1019E00020813197208301968830910589F7A0CF17
:1019F000FC01C28085898823F9F040E0C801CC2031
:101A0000C1F00E94AC068983CC20C1F020E0CC2438
:101A1000C394C20E4C2D6D2DC8010E947E0B2C2D3F
:101A20002730A9F7298147E06D2DC8010E946B0B73
:101A30007FCF0E94D906E7CF1982E6CF87E090E0FA
:101A4000D8011C96ED91FC91EE0DFF1DE80FF91FDA
:101A50002081220F2083019798F7E4CFFC01C280F8
:101A600085898823D9F047E0C801CC20A1F00E94E5
:101A7000AC068983CC20A1F028E0CC24CA94C20E05
:101A80004C2D6D2DC8010E947E0B2C2DC110F5CF61
:101A9000298140E0C9CF0E94D906EBCF1982EACF55
:101AA00030E020E0D8011C96ED91FC91EE0DFF1D79
:101AB000E20FF31F808190E09595879580832F5FDB
:101AC0003F4F2830310571F7E3CFFC018281882335
:101AD000C1F0B12CA12CD8011C96CD90DC90CE0C7D
:101AE000DF1CCA0CDB1CF60180810E941D03D6019D
:101AF0008C93BFEFAB1ABB0AE8E0AE16B10459F7FE
:101B000017CF30E020E047E050E0D8011C968D91DF
:101B10009C918E0D9F1DFC01E20FF31FD080BA0136
:101B2000621B730B860F971FDC018C918083D80199
:101B30001C96ED91FC91EE0DFF1DE60FF71FD08274
:101B40002F5F3F4F2430310501F7F2CEFC01828137
:101B5000882329F130E020E047E050E0D8011C96CE
:101B60008D919C918E0D9F1DFC01E20FF31FD08083
:101B7000BA01621B730B860F971FDC018C91808367
:101B8000D8011C96ED91FC91EE0DFF1DE60FF71F9D
:101B9000D0822F5F3F4F2430310501F7C9CEB12CE1
:101BA000A12CF801C484D584CE0CDF1CCA0CDB1C2C
:101BB000D6018C910E941D03F6018083FFEFAF1ABE
:101BC000BF0A28E0A216B10461F7B2CECE01019699
:101BD0005C014C0187E0C82E4C2D6D2DC8010E9480
:101BE0003907D4018D934D01CA94BFEFCB12F4CFC6
:101BF000C12CF50121915F014C2D6D2DC8010E9472
:101C00006B0BC394F8E0CF12F4CF92CE90E080E05B
:101C1000D8011C96ED91FC91EE0DFF1DE80FF91F08
:101C200020812095208301968830910589F780CE08
:101C3000CF92DF92EF92FF920F931F93CF93DF9398
:101C4000EC01DD24D394F12CE12C01E010E0B9E0AB
:101C5000CB2ECE010E94110A98010E2C02C0220F39
:101C6000331F0A94E2F7E0E090E08B85E81798F5DF
:101C7000EC9DA0011124AC85BD85A40FB51F18965D
:101C80006C9170E062237323672B19F16E2F70E063
:101C90008150990B861B970B880F991FAE85BF85C6
:101CA000A80FB91FDC92AC85BD85A40FB51FAE0D82
:101CB000BF1DFC918B858150990B861B970B880F5C
:101CC000991F4E855F85840F951FDC011196FC934B
:101CD00091E0EF5FCACF992319F0CE010E94B207BD
:101CE000BFEFEB1AFB0AD39488E0E816F10409F081
:101CF000B0CF80E099E02B85821748F4EC85FD8514
:101D0000899FE00DF11D112410868F5FF4CFDF91C4
:101D1000CF911F910F91FF90EF90DF90CF9008959A
:101D2000CF93DF93C9E078E05FEF4617B0F06C9F88
:101D300090011124FC01A485B585A20FB31FFD01FC
:101D4000D72F1192DA95E9F7DC011C96ED91FC9101
:101D5000E20FF31F50876F5FE8CFFC012489222335
:101D600021F0DF91CF910C94180EDF91CF9108955F
:101D70006F927F928F929F92AF92BF92CF92DF929B
:101D8000EF92FF920F931F93CF93DF93CDB7DEB700
:101D900029970FB6F894DEBF0FBECDBF8C01E62E9B
:101DA000F42E5901D12C461708F4D5C0DC01549605
:101DB000DC90549754961C9224303105B0F52230B3
:101DC0003105C8F52130310509F4DBC0D80155963D
:101DD0008C91882309F486C06F2D660F660F660FFD
:101DE000695FC8010E944007C82EAE2CB12C8F2D10
:101DF0000F2C000C990B8A159B050CF489C050E040
:101E000040E06F2DC8010E94500C99249A949F0CB9
:101E100047E0692DC8010E943907282F40E06F2D47
:101E2000C8010E94520BF92CE2CF2430310561F039
:101E30002830310558F6A5016E2DC8010E94500CBE
:101E4000E394FE14C0F77EC0642F70E0AE2CB12C7A
:101E50004B018A189B08BFEF8B1A9B0A97FE03C0A1
:101E6000EFEF8E1A9E0A95948794712C29E0C22E6A
:101E7000472D50E0481559050CF0CFC0F8012485D6
:101E80003585FA01EA0DFB1DCE9EC001CF9E900D57
:101E90001124820F931FFC01DE0111966C2C01901E
:101EA0000D926A94E1F7FB01E41BF50BCE9EA001B5
:101EB000CF9E500D1124F901E40FF51FDC018C2D8C
:101EC00001900D928A95E1F7F801A485B585A40FDC
:101ED000B51FFE0131968C2D01900D928A95E1F788
:101EE0007394C6CFF801A288B388A114B10471F02D
:101EF0006F2D660F660F660F695FC8010E9440076D
:101F0000482F70E060E08F2DF5010995C12C6DCF51
:101F1000D8015096ED91FC915197309749F0559624
:101F20008C91811105C070E060E08E2D0995C82E5E
:101F3000B50183E0660F771F8A95E1F74C2DC80144
:101F40000E94610BD8015496DC92DD2009F46FC029
:101F5000C8010E94180E8D2D29960FB6F894DEBF89
:101F60000FBECDBFDF91CF911F910F91FF90EF90EA
:101F7000DF90CF90BF90AF909F908F907F906F90A9
:101F80000895FC0185898823A9F1660F660F660F05
:101F9000C8010E944007C82E41E050E06E2DC801E4
:101FA0000E94500CBB24B394BE0C40E06B2DC801C2
:101FB0000E943907282F47E06E2DC8010E94520B5E
:101FC000EB2CFB1448F7D8015096ED91FC915197FA
:101FD000309749F055968C91811105C061E070E011
:101FE0008F2D0995C82EB8E0FB9EB0011124695FC2
:101FF0007F4FA4CFA288B388A114B10461F0660F0B
:10200000660F660FC8010E944007482F61E070E02C
:102010008E2DF5010995C12CBFCF44E050E06E2D07
:10202000C8010E94500CE394FE14B8F78BCFDD2456
:10203000D39491CFCF93DF93EC014CA16BA14617C2
:1020400020F0888199810E94900E8D8D882351F017
:1020500027E030E04CA16BA188819981DF91CF917D
:102060000C94B80EDF91CF910895CF92DF92EF924A
:10207000FF920F931F93CF93DF93EC01D62EC42EC4
:10208000790180E04617E0F02A30310508F069C098
:10209000CE010E94110A92E0E916F10409F453C03E
:1020A000C0F4E114F10429F1F1E0EF16F10409F4B0
:1020B00043C0D394CD1478F7CE010E94B20781E0DB
:1020C000DF91CF911F910F91FF90EF90DF90CF9014
:1020D000089583E0E816F104E9F194E0E916F104CB
:1020E00041F781E00115110509F480E0819599E03F
:1020F00006C081E00115110509F080E09CE04D2D3E
:1021000050E02B852150330B241B350B220F331F3E
:102110006E857F85260F371FF90190832B8521500F
:10212000330B241B350B220F331F4E855F85240F85
:10213000351FF9018183BDCF802F083011050CF0C8
:1021400087E09BE0DCCF802F003111050CF08FE0A1
:102150009AE0D5CF81E00115110509F480E09FE0F8
:10216000CECF81E00130110509F080E0FBE0EF16F1
:10217000F10449F08C8B0130110509F0A0CFCE019C
:102180000E94180E9CCF8D8B9ACF0F931F939B01AB
:102190008A01FC014385415060E00E9435101F9187
:1021A0000F9108950F931F93FC0161A3062F10E078
:1021B00022E030E044A163A1808191810E9435102A
:1021C0001F910F910895CF92DF92EF92FF920F939C
:1021D0001F93CF93DF937C016B01EA01CA01019643
:1021E0000E94A02E8C010097F1F0AE01B6010E9472
:1021F0008230F801EC0FFD1F1082D701ED91FC91A8
:102200000084F185E02DB801C7010995C8010E943D
:102210003C2FCE01DF91CF911F910F91FF90EF9056
:10222000DF90CF900895D0E0C0E0F3CFCF92DF925F
:10223000EF92FF920F931F93CF936C017B01C42FFA
:102240008901DC01D196ED91FC91309709F18081F3
:1022500091818E159F05C1F40280F381E02D80816C
:102260008C1708F4C82F4C2F50E0BF016F5F7F4FD1
:10227000C8010E9482308C2FCF911F910F91FF9047
:10228000EF90DF90CF9008950480F581E02DDDCFB1
:10229000F6018081918122AD33ADDC0156964D91DE
:1022A0005C912417350751F02115310511F424EA0A
:1022B00030E0FC01378B268B0E94050601151105C5
:1022C00009F448C0D6012D913C91F901878D90A168
:1022D000B0E0A0E0438D548DE416F506A0F1658DC5
:1022E000768D6E157F0578F166897789FB01E80F99
:1022F000F91FE416F50659F0E4918E0F911DA11D0A
:10230000B11D0196A11DB11D4F5F5F4FEFCF4491ED
:10231000C41710F50196A11DB11DA801801B910BDA
:10232000642F601B6C1708F0A6CFBC01640F751FEB
:10233000D9015696ED91FC91E60FF71FE491DA0171
:10234000ED93AD01EDCF4C2F50E070E060E0C8019F
:102350000E948B30C0E08FCFC491DCCF1F93CF930E
:10236000DF93EC01142F2CA93DA94BA90E94161153
:10237000112389F0882379F090E02EA9921758F460
:102380002BA9821730F4ECA9FDA9E80FF11D1082EA
:102390008F5F9F5FF2CFDF91CF911F9108950F93D1
:1023A0001F93CF93DF93EC018B01EEA5FFA541E0D6
:1023B0008181811101C040E0608170E0CE010E9406
:1023C000AE11F801808328A19C8D21FD10C09923B6
:1023D00059F0288D398D2530310581F4682F8CA96D
:1023E0009DA90E94F4030AC02A8D3B8DF4CF992346
:1023F000B9F0288D398D2530310581F788A180FF0E
:1024000006C0F80160818CA99DA90E940E04CE012E
:102410000E94470781E0DF91CF911F910F910895AE
:102420002A8D3B8DE8CF0F931F93CF93DF93EC0161
:10243000FB011082ACA5BDA5BFA7AEA7109719F0F0
:102440008C91811108C081E088AB80E0DF91CF9151
:102450001F910F91089518AA8C8D98A191FD10C01D
:10246000882359F0888D998D059781F40D9000206F
:10247000E9F71297BFA7AEA709C08A8D9B8DF4CF4D
:10248000882331F1888D998D059781F7AEA5BFA579
:1024900041E011968C911197811101C040E08B01B0
:1024A0006C9170E0CE010E94AE11F801808328A1EA
:1024B0009C8D21FD13C0992371F0288D398D253015
:1024C000310599F4682F8CA99DA90E94F4030DC0D1
:1024D0008A8D9B8DD9CF2A8D3B8DF1CF992399F091
:1024E000288D398D2530310569F788A180FF06C018
:1024F000F80160818CA99DA90E940E04CE010E9462
:10250000470781E0A3CF2A8D3B8DECCFCF92DF929E
:10251000EF92FF920F931F93CF93DF93EC010E94F2
:102520001A10C988DA887E0187E3E80EF11CB7012A
:10253000CE010E94131219AE18AE86018B899C89B8
:10254000081719077CF18FA928AD39AD821713063A
:1025500011F081110AC01FAA88A9811104C0B70116
:10256000CE010E94CF1119AE18AE8FA9882331F386
:102570008881998148AD59AD9A012F5F3F4FECA9F1
:10258000FDA9E40FF51F4D8D39AF28AF442341F06D
:1025900040814095B8010E94610B01501109CECFD6
:1025A0004081F8CFDF91CF911F910F91FF90EF9075
:1025B000DF90CF900895FF920F931F93CF93DF93F7
:1025C000EC01F62E8D859E85442309F462C084308B
:1025D000910530F5019758F18D859E85059721F479
:1025E00083E090E09E878D87CE010E9486120DA128
:1025F0001EA12FA18AA59BA5820F911D27FD9A954B
:1026000080179107E1F04D8D4195B801888199813E
:102610000E94610B8FA1080F111D87FD1A95E9CF4C
:102620000597D1F285E090E09E878D872CC0CE0182
:102630000E94770783E090E09E878D87CDCFFF20B3
:1026400069F06DA17EA10617170741F04D8D81E05D
:1026500048274195888199810E94610B8DA19EA197
:102660002FA1022E000C330B4AA55BA5420F531F6E
:102670008417950721F445E050E05E874D87820F6F
:10268000931F9EA38DA3DF91CF911F910F91FF9078
:1026900008958430910500F5019700F1CE010E9464
:1026A000861208A519A56DA17EA18FA1082E000C88
:1026B000990B9B01280F391F20173107B9F04D8D59
:1026C0004195B801888199810E94610B8FA1080F03
:1026D000111D87FD1A95E7CF059751F5CE010E9490
:1026E000770783E090E09E878D87D8CFFF2079F031
:1026F0002AA53BA5820F931F6817790741F04D8DDE
:1027000081E048274195888199810E94610B8DA1C4
:102710009EA12FA1022E000C330B4AA55BA5420FF0
:10272000531F8417950709F0AACF46E050E0A5CFC4
:1027300086E090E079CFAF92BF92CF92DF92EF9296
:10274000FF920F931F93CF93DF93EC01F62E8D85AD
:102750009E85442309F46EC08430910580F501976D
:10276000A8F1CE010E941A10CE010E948612CBA0C1
:1027700088E0C89E60011124EE24E394F11002C0A9
:1027800050E8E52E0DA11EA18CA190E0019643E03A
:10279000880F991F4A95E1F7C816D906ACF5A880AD
:1027A000B9806C2DC5010E944007101624F5FF204A
:1027B00001F1880F9D8D91118E290150F6CF05975B
:1027C00081F285E090E09E878D8729C087E090E0C8
:1027D0009EA38DA310E000E02BE030E04CA16BA1A4
:1027E000888199810E94351083E090E09E878D87D3
:1027F000B8CF8695DFCF482FB601C5010E94610B87
:102800008FEFC81AD80ABECF0115110521F485E053
:1028100090E09E878D87015011091EA30DA3DF91C3
:10282000CF911F910F91FF90EF90DF90CF90BF90CD
:10283000AF9008958430910560F5019760F10BA188
:1028400088E0089F8001112430E8E32EF11002C0D7
:10285000EE24E3948CA190E0019623E0880F991F69
:102860002A95E1F708171907FCF4C880D980602F72
:10287000C6010E944007482FFF20A1F046958D8D8C
:1028800081114E29B801C6010E94610B0F5F1F4FD5
:10289000E1CF0597B1F41EA21DA283E090E09E87D0
:1028A0008D87CDCF440FEBCF8DA19EA187309105B1
:1028B00021F426E030E03E872D8701969EA38DA36C
:1028C000AECF86E090E07FCFCF92DF92EF92FF9283
:1028D0001F93CF93DF93EC01D42E8D859E856623C5
:1028E00009F458C084309105A8F50197D0F1CE01C4
:1028F0000E9486122DA13EA12830310569F1E8A47D
:10290000F9A481E090E001C0880F2A95EAF7182F1A
:10291000D11010952FA18AA59BA5820F911D27FD8F
:102920009A958E159F0549F1C880D9806E2DC601F4
:102930000E9440079D8D412F9923E9F04095482B37
:10294000B701C6010E94610B8FA1E80EF11C87FD43
:10295000FA94E0CF059759F285E090E09E878D8745
:1029600011C0CE010E9477071EA21DA283E090E055
:102970009E878D87BCCF4823E3CF8DA19EA1019672
:102980009EA38DA3DF91CF911F91FF90EF90DF90D9
:10299000CF9008958430910598F5019798F1CE0174
:1029A0000E9486128DA19EA110E097FD05C011E046
:1029B00001C0110F8A95EAF7E8A4F9A4D110109587
:1029C0002FA18AA59BA5820F911D27FD9A958E1593
:1029D0009F0531F1C880D9806E2DC6010E94400745
:1029E0009D8D412F9923D1F04095482BB701C60109
:1029F0000E94610B8FA1E80EF11C87FDFA94E0CFD5
:102A00000597C1F4CE010E94770787E090E09EA36E
:102A10008DA383E090E09E878D87C1CF4823E6CFCA
:102A20008DA19EA197FF04C026E030E03E872D8750
:102A30000197A6CF86E090E091CFFF920F931F936E
:102A4000CF93DF93EC01F42E8D859E85662309F4E8
:102A500044C08430910538F5019760F1CE010E94A1
:102A600086122DA13EA18AA59BA528173907E9F05A
:102A700008A519A58FA1082E000C990B2DA13EA128
:102A80004AA55BA5480F591F4017510709F464C0B8
:102A9000F11018C002171307C1F48FA1080F111D00
:102AA00087FD1A95E7CF0597C9F285E090E09E87EC
:102AB0008D8756C0CE010E94770783E090E09E8705
:102AC0008D87CCCF0217130741F74D8D4195B80183
:102AD000888199810E94610BE0CF8430910500F5D7
:102AE000019700F1CE010E94861208A519A54AA5FA
:102AF0005BA58FA1082E000C990B2DA13EA1BA0158
:102B0000680F791F6017710701F1F11013C00217E8
:102B1000130799F48FA1080F111D87FD1A95E7CFB0
:102B2000059721F5CE010E94770783E090E09E870C
:102B30008D87D8CF0217130769F74D8D4195B801DE
:102B4000888199810E94610BE5CF2417350724F411
:102B500046E050E05E874D87820F931F9EA38DA3B2
:102B6000DF91CF911F910F91FF90089586E090E043
:102B70009ECFEF92FF920F931F93CF93DF93EC01C1
:102B8000162F8D859E85442309F488C083309105D6
:102B900028F00397B1F185E090E02AC069897A892D
:102BA0008B899C899B01281B390BC90137FD019634
:102BB0009595879501969EA38DA31123B9F04D8D10
:102BC00011E041274195681B790B888199810E940A
:102BD000610B4D8D412741956B897C898DA19EA10B
:102BE000680F791F888199810E94610B83E090E0D2
:102BF0009E878D87DF91CF911F910F91FF90EF906E
:102C000008958DA19EA197FDC6CFCE010E94861288
:102C1000F12CE12C6DA17EA1E616F706C4F44D8DD2
:102C200041956B897C896E0D7F1D888199810E94F9
:102C3000610B4D8D419569897A896E197F0988816B
:102C400099810E94610B3FEFE31AF30AE3CF6150D1
:102C500071097EA36DA3112369F277FDCBCF4D8D52
:102C600011E0412741958B899C89680F791F8881E4
:102C700099810E94610B4D8D4127419569897A891F
:102C80008DA19EA1681B790B88819981DF91CF91DD
:102C90001F910F91FF90EF900C94610B8330910581
:102CA00031F108F077C0019708F477C0CE010E9497
:102CB0001A10CE010E9486121EA21DA2112399F0A5
:102CC0004D8D01E04027419569897A8988819981F4
:102CD0000E94610B4D8D402741956B897C898881CD
:102CE00099810E94610B83E090E09E878D872DA1E2
:102CF0003EA169897A898B899C89AB01481B590B54
:102D0000CA0157FD019695958795821793070CF494
:102D100044C04D8D4195621B730B888199810E943F
:102D2000610B4D8D41956B897C898DA19EA1680FAA
:102D3000791F888199810E94610B2DA13EA12F5F8F
:102D40003F4F3EA32DA3112309F454CF69897A89FB
:102D50008B899C89AB01481B590BCA0157FD019611
:102D600095958795821793070CF444CF4D8D11E00C
:102D700041274195621B730B888199810E94610BE9
:102D80004D8D412741956B897C898DA19EA1680F4E
:102D9000791F7ACF059709F489CF86E090E028CF94
:102DA000CF92DF92EF92FF920F931F93CF93DF9317
:102DB000EC01162F8D859E85442309F458C084307C
:102DC0009105B0F5019708F43AC0CE010E94861231
:102DD0002DA13EA190E080E0111102C08FEF90E0A4
:102DE0002817390739F1E8A4F9A42FA18AA59BA5D2
:102DF000820F911D27FD9A958E159F0581F10D8DEE
:102E0000C880D9806E2DC6010E94400701118095AF
:102E10004DA111114095482301114095B701C601FC
:102E20000E94610B8FA1E80EF11C87FDFA94DDCFA3
:102E3000059759F285E090E09E878D8771C0CE019D
:102E40000E9477078FEF90E0111102C081E090E0BF
:102E50009EA38DA383E090E09E878D87B6CF8DA142
:102E60009EA1112309F457C09595879557C08430CA
:102E7000910550F5019750F1CE010E948612E8A409
:102E8000F9A42FA18AA59BA5820F911D27FD9A95D4
:102E90008E159F0559F10D8DC880D9806E2DC60104
:102EA0000E944007011180954DA1111140954823C2
:102EB00001114095B701C6010E94610B8FA1E80E78
:102EC000F11C87FDFA94DDCF0597C1F4CE010E9475
:102ED000770781E090E0111102C08FEF90E09EA390
:102EE0008DA383E090E09E878D87C6CF8DA19EA1A4
:102EF000111107C0009709F0B7CF06C086E090E037
:102F00009BCF8F3F910539F426E030E03E872D8737
:102F1000112309F4A9CF880F991F81609EA38DA367
:102F2000DF91CF911F910F91FF90EF90DF90CF90A5
:102F30000895AF92BF92CF92DF92EF92FF920F93DC
:102F40001F93CF93DF93EC01F62EE42E8D859E85A3
:102F5000222309F4A9C08430910590F50197B8F1B6
:102F6000CE010E941A10CE010E9486120DA11EA150
:102F7000EE2009F44BC0EE24E394F11002C070E897
:102F8000E72ECDA0DEA08CA190E0019663E0880F33
:102F9000991F6A95E1F7081719070CF06FC0A88010
:102FA000B980602FC5010E9440079C2D191624F599
:102FB000FF2001F1880F2D8D21118E299150F6CF20
:102FC000059771F285E090E09E878D8762C087E06B
:102FD00090E09EA38DA310E000E02BE030E04CA138
:102FE0006BA1888199810E94351083E090E09E87D3
:102FF0008D87B6CF8695DFCFB8016C197D09482F34
:10300000C5010E94610B0F5F1F4FBBCF8CA128E051
:10301000829FC00111249C01201B310B8901085F94
:103020001F4FEE24E394F11002C050E8E52ECDA02E
:10303000DEA08BA138E0839FC00111240817190777
:10304000ECF0A880B980602FC5010E9440079C2D3C
:10305000191654F4FF2031F0880F2D8D21118E297F
:103060009150F6CF8695F9CFB8016C0D7D1D482F94
:10307000C5010E94610B01501109D9CF8DA19EA1FC
:10308000009721F425E030E03E872D8701979EA32D
:103090008DA3DF91CF911F910F91FF90EF90DF9063
:1030A000CF90BF90AF9008958430910580F501973F
:1030B00088F1EE20C1F10CA188E0089F8001112465
:1030C0000A5F1F4F40E8B42EF11002C0BB24B39436
:1030D000C880D9808BA128E0829FC00111240817E5
:1030E00019070CF450C0602FC6010E944007482FFA
:1030F000FF20B9F046958D8D81114B29B8016F5F86
:103100007F4FC6010E94610B01501109E1CF059765
:1031100009F059C01EA21DA283E090E09E878D8712
:10312000C8CF440FE8CF0BA138E0039F80011124E2
:103130000F5F1F4F30E8B32EF11002C0BB24B394D1
:10314000C880D9808CA190E0019623E0880F991F58
:103150002A95E1F708171907B4F4602FC6010E94F9
:103160004007482FFF2069F046958D8D81114B292E
:10317000B80161507109C6010E94610B0F5F1F4FBA
:10318000DFCF440FF2CF888199814D8D4195EE209C
:1031900091F06BA128E0629FB00111240E94610BA5
:1031A0008DA19EA18730910521F426E030E03E8775
:1031B0002D8701966CCF6CA138E0639FB00111247C
:1031C000695F7F4FEBCF86E090E0FECECF92DF923B
:1031D000FF920F931F93CF93DF93EC01F62E8D8513
:1031E0009E85442309F484C08330910570F00397D1
:1031F00051F185E090E09E878D87DF91CF911F91FF
:103200000F91FF90DF90CF9008951EA21DA2CE01D6
:103210000E941A10FF2099F04D8D11E04127419531
:1032200069897A89888199810E94610B4D8D412736
:1032300041956B897C89888199810E94610B83E02B
:1032400090E09E878D87CE010E941A10CE010E94C9
:1032500086120B891C8989899A89801B910B97FD9D
:1032600001966C01D594C7948DA19EA1080F191FDA
:10327000C816D9060CF4BDCF0F5F1F4F69897A8934
:103280008DA19EA19B01281B390B0217130744F443
:103290004D8D4195B801888199810E94610BECCFD9
:1032A00001969EA38DA3FF2009F4A7CFC816D906C7
:1032B0000CF4A3CF4D8D11E041274195681B790B8C
:1032C000888199810E94610B4D8D412741956B89C1
:1032D0007C898DA19EA1680F791F88819981DF91DA
:1032E000CF911F910F91FF90DF90CF900C94610BC5
:1032F00083309105D1F1A0F50197A0F189899A89D0
:103300002B893C89821B930B97FD01969595879598
:103310009EA38DA3CE010E941A10CE010E94861298
:10332000FF20D9F04D8D11E04127419569897A89B7
:103330008DA19EA1681B790B888199810E94610BE8
:103340004D8D412741956B897C898DA19EA1680F88
:10335000791F888199810E94610B83E090E04BCFB7
:10336000059761F286E090E046CF8DA19EA197FD82
:10337000F9CF4D8D419569897A89681B790B8881D0
:1033800099810E94610B4D8D41956B897C898DA13E
:103390009EA1680F791F888199810E94610B8DA180
:1033A0009EA101979EA38DA3FF2009F426CF97FD30
:1033B00024CF4D8D11E04127419569897A897ECFCF
:1033C0008F929F92AF92BF92CF92DF92EF92FF9235
:1033D0000F931F93CF93DF93EC01F62E8D859E857F
:1033E000442309F4E0C08E01095C1F4F35E0C32E71
:1033F000D12C82309105E9F050F08330910509F429
:1034000041C0049709F4A8C085E090E00FC0BE0158
:10341000695C7F4FCE010E941312811103C086E0C8
:1034200090E004C019AE18AE83E090E09E878D87CF
:103430000DC01FAA88A98823B1F0DE86CD868D85B0
:103440009E852FA9211116C0059799F7DF91CF917D
:103450001F910F91FF90EF90DF90CF90BF90AF90B2
:103460009F908F900895B801CE010E94CF118111D5
:10347000E6CFE3CF059751F319AE18AE83E090E0A5
:103480009E878D878FA9882329F121E02F2530E0A1
:103490004CA16BA1888199810E94B80E8881998185
:1034A0006D8D2CA93DA948AD59AD662301F1BA0136
:1034B0006F5F7F4F79AF68AF240F351FF9014081EF
:1034C0004095FF20F1F06BA1F8E06F9FB00111244F
:1034D0000E94610B2FA988AD99AD2817190609F034
:1034E000B5CF88A9811115C082E090E09FCFBA01C5
:1034F0006F5F7F4F79AF68AF240F351FF9014081AF
:10350000E0CF6CA128E0629FB0011124695F7F4F7A
:10351000DFCF29893A89FF20B1F08F859889A901E9
:10352000481B590BCA0101962BA158E0259F801911
:103530009109112499AF88AF181619060CF064CFC1
:1035400084E090E073CF8CA1E8E08E9FC00111244D
:103550000796821B930BEECF21E0262730E04CA18B
:103560006BA1888199810E94B80E888199814D8DC7
:103570004195FF2081F06BA1F8E06F9FB00111240D
:103580000E94610B88AD99AD019799AF88AF892BE7
:1035900009F05CCF39CF6CA128E0629FB001112403
:1035A000695F7F4FEDCF8430910539F0059709F0C1
:1035B00036CF84E090E09E878D8721E02F2530E094
:1035C0004CA16BA1888199810E94B80E8881998154
:1035D0004D8D4195FF2009F445C06BA138E0639FF4
:1035E000B00111240E94610B0CA110E0ABA0B12C22
:1035F0006801CA18DB088FEFC81AD80A23E0CC0C80
:10360000DD1C2A95E1F78E8D9F8D009721F08C159A
:103610009D0508F46C010F5F1F4F83E0000F111F21
:103620008A95E1F793E0AA0CBB1C9A95E1F7FF207D
:1036300021F145017401EA18FB0880169106DCF5BA
:10364000682D888199810E94400790E02D8D22236A
:1036500089F02FEF30E08217930769F5EFEF8E1AAC
:103660009E0AE8CF6CA158E0659FB0011124695F04
:103670007F4FB8CF30E020E0EECF01501109F12CA0
:10368000E12C0A151B05BCF0602F888199810E94EE
:10369000400790E02D8D222359F02FEF30E0821764
:1036A000930749F401501109FFEFEF1AFF0AE9CF20
:1036B00030E020E0F4CFEC14FD0408F0B0CEC6CE2C
:1036C0002F923F924F925F926F927F928F929F9232
:1036D000AF92BF92CF92DF92EF92FF920F931F9320
:1036E000CF93DF93CDB7DEB72B970FB6F894DEBF3D
:1036F0000FBECDBF9B838A8304969D838C8350E04D
:1037000040E06AE070E00E94C510212C198206E0BA
:1037100010E0E5E04E2E512CF3E06F2E712CAA81C3
:10372000BB8198968C919897281610F00C943724AA
:103730009596ED91FC9124E4229EE00DF11D11245B
:10374000FB87EA8712A2858596858630910511F45C
:103750000C940824248D2223C9F0C780D084F12C36
:10376000E12C0597C9F00E94C605EA85FB85838098
:103770009480A580B680681979098A099B096C151F
:103780007D058E059F0518F580E098C1AA85BB854B
:103790001996CD90DC90E3CF0E94C605AA85BB8523
:1037A00013968D909D90AD90BC901697AB01BC0187
:1037B000481959096A097B091B968D919C91B0E0C3
:1037C000A0E0481759076A077B0768F6DDCFEA854E
:1037D000FB8592809110D8CF0E94C605AA85BB8533
:1037E00013966D937D938D939C93169781E092969B
:1037F0008C9392979C96AD90BC909D97A114B10428
:1038000009F452C11D968D919C91009709F433C023
:10381000069709F449C1AA85BB855C963C905C97E4
:10382000332009F4F6C05896ED91FC913197EC31B4
:10383000F10508F093C3E15EF34E0C949A2E331D0C
:103840003C1D631D661D6D1D3F22701DE61EB11FD0
:10385000F4203E207E21BC23C323CD23C623D623C0
:10386000CF23D823DF23E223E923EC23F423F72318
:10387000FB23FE230524EA85FB85B7A6A6A6E4A0C4
:10388000F8E0EF9E700111249701295F3F4F790105
:10389000AA85BB8593968C91B8E08B9FE018F108C0
:1038A0001124EFEFEE1AFE0AD12CC12CD5016D9137
:1038B0005D016623C1F0EA85FB8524A935A970E086
:1038C00043A9CF010E94161190E0C80ED91E892B82
:1038D00069F3D5018C91882349F3EA85FB8586A994
:1038E000C80ED11CE3CFAA85BB855096DC92CE9240
:1038F0001F9756968D919C918130910509F455C082
:1039000028F0029771F1992493941DC0EA85FB85F4
:1039100084A190E0019673E0880F991F7A95E1F7F2
:103920009C0121503109328B218BEC14FD0490F461
:1039300083A1F8E08F9FC0011124AA85BB8554960E
:103940009C938E93539781E09826EA85FB85958A10
:10395000848F61CF8C199D09EA85FB85948B838BBD
:10396000D2CFAA85BB8593968C91B8E08B9FC0017E
:103970001124EA85FB85948B838BEC14FD0468F499
:1039800084A1F8E08F9FC00111240796AA85BB850A
:1039900052969C938E935197D6CF0197C80ED91EFD
:1039A000EA85FB85D28AC18AAECFAA85BB8593966C
:1039B0002C91B8E02B9F90011124EC14FD0498F495
:1039C000EA85FB8584A1F8E08F9FC001112407964A
:1039D000AA85BB8552969C938E93519754963C939F
:1039E0002E935397B0CFEC18FD08F694E794E20EAF
:1039F000F31EEA85FB85F48AE38AF1E0CF1AD10849
:103A0000CE0CDF1CAA85BB855296DC92CE925197D4
:103A10007ACFAA85BB855A96ED91FC913197EC310E
:103A2000F10508F09BC2E95EF24E0C949A2E232019
:103A30003C1D631D661D6D1D3F22701DE61EB11FDE
:103A4000F4203E207E21BC23C323CD23C623D623CE
:103A5000CF23D823DF23E223E923EC23F423F72326
:103A6000FB23FE2305248A859B850E948612EA8516
:103A7000FB855686458606C0432D61E08A859B8579
:103A80000E949B13AA85BB855C968C915C971D96C2
:103A90002D913C91882329F081E02530310509F4EE
:103AA00080E0EA85FB85848F81E0AA85BB851D9631
:103AB0002D913C912630310509F066CEB981B82BA5
:103AC000B98323942CCE432D60E0D8CF432D61E001
:103AD0008A859B850E94E019D5CF432D60E0F8CF01
:103AE000EA85FB8585859685332009F4EAC07F0148
:103AF000F7E3EF0EF11C82309105A1F130F003974E
:103B000009F45BC0AA85BB8566C26A857B85695C52
:103B10007F4F8A859B850E941312811103C0AA855D
:103B2000BB859CC68A859B850E941A10EA85FB8509
:103B300011AE10AE83A1F8E08F9FC0011124AA85B9
:103B4000BB8596969C938E93959751968D919C915B
:103B500052979B969C938E939A971E967C926E9208
:103B60001D9790CFEA85FB8517AA80A9882381F04D
:103B7000AA85BB851E965C924E921D97EA85FB85B1
:103B80008585968527A921110BC0059759F77ACF0E
:103B9000B7018A859B850E94CF118111EFCFE8CFB5
:103BA000059709F46FCFAA85BB85D9961C921E9202
:103BB000D8971E967C926E921D97EA85FB8565A12B
:103BC00076A182A593A504A8F5A9E02DAA85BB85B9
:103BD000D8962D913C91D997E20FF31F4081681739
:103BE000790751F48D919C9111975D962C9121113B
:103BF00040950E94610B3BCF411135C0AA85BB8522
:103C000096969C938E939597EA85FB8585A196A1C0
:103C100022A533A582179307C1F420AD31AD43A18E
:103C2000F8E04F9FA0011124AA85BB8596965C936E
:103C30004E9395972F5F3F4FD9963C932E93D897ED
:103C400001979B969C938E939A97EA85FB8527A96B
:103C500080AD91AD2817190609F014CF82E090E0ED
:103C6000968785870FCFEA85FB85458D41958081B5
:103C700091810E94610BAA85BB8595966D917C917F
:103C800096976F5F7F4F96967C936E9395978D91E5
:103C90009C9111975D96EC915D97D4962D913C91F6
:103CA000D597D8964D915C91240F351FEE2331F0B6
:103CB000F901408140950E94610BA6CFD9014C913A
:103CC000FACF8130910508F42ACF8430910568F04D
:103CD000059709F024CFEA85FB858189928993A70E
:103CE00082A796A385A376866586AA85BB85CD9097
:103CF000DC9011975D968C9188248A94912C811187
:103D000002C0912C812CEA85FB85A388B488AA8502
:103D1000BB859596ED90FC906E2DC6010E944007E4
:103D2000EA85FB8522A533A58815190451F42A15C7
:103D30003B053CF0C901019793A782A736A325A3B1
:103D4000E6CF2F5F3F4F2A153B050CF4E8CEEA85FE
:103D5000FB8524A1F8E02F9F90011124295F3F4F9C
:103D6000E216F3063CF4B7016F5F7F4F482FC601A0
:103D70000E94610BAA85BB855D964C915D9741952C
:103D800095966D917C9196978D919C910E94610B77
:103D9000EA85FB8525A136A12F5F3F4F36A325A3DA
:103DA00084A190E0019643E0880F991F4A95E1F7BE
:103DB0002817390709F066CE82A593A59C012150EA
:103DC000310933A722A796A385A35CCEEA85FB859C
:103DD00085859685332009F467C08430910508F005
:103DE00042C0019708F443C08A859B850E941A103F
:103DF0008A859B850E948612EA85FB8593A0990C93
:103E0000990C990C88248394AA85BB859596ED908E
:103E1000FC90969794968C91949790E0019623E06D
:103E2000880F991F2A95E1F7A92CB12CA816B9067D
:103E300074F5CD90DC90692DC6010E944007482F93
:103E400050E087E090E08E199F093320D9F002C03E
:103E5000559547958A95E2F7B501C6010E94610B19
:103E600038249394D1CF059709F4BECF00CEAA850C
:103E7000BB8596961C921E9295971E967C926E928A
:103E80001D97B2CF01C0440F8A95EAF7E5CFBFEF87
:103E9000EB1AFB0AEA85FB85F6A2E5A2F8E0EF162D
:103EA000F10409F0EFCD2ECE8430910598F50197FD
:103EB000A0F1AA85BB8593969C90990C990C990CBE
:103EC0008824839433243394EA85FB85E5A0F6A007
:103ED00084A190E00196B3E0880F991FBA95E1F7AD
:103EE000A92CB12CA816B9065CF5C080D180692D2B
:103EF000C6010E944007482F50E08820D9F001C039
:103F0000440FEA94EAF7B501C6010E94610B8324CD
:103F10009394DACF059709F002CEE1E0F0E0AA85AC
:103F2000BB859696FC93EE9395971E967C926E9227
:103F30001D97BFCF02C055954795EA94E2F7E3CFAE
:103F4000FFEFEF1AFF0AAA85BB859696FC92EE92C8
:103F50009597B8E0EB16F10409F094CDEA85FB855E
:103F600008C4EA85FB8585859685332009F45AC007
:103F70008430910500F58230910500F5009781F1BC
:103F8000019709F0BFCDAA85BB8595966D917C916F
:103F90009697CB01019696969C938E939597CD011B
:103FA0000E94D2108A859B850E948612EA85FB8535
:103FB0007686658667CD059709F0A4CDAA85BB8571
:103FC00095966D917C9196979A968D919C919B97E1
:103FD00086179707ECF41E965C924E921D9752CD71
:103FE000AA85BB8596961C921E92959791968C9168
:103FF000919790E09B969C938E939A97CD010E9407
:104000001A1021E030E0EA85FB85368725873ACD16
:10401000CB010196EA85FB8596A385A3CF010E947B
:10402000D21030CD8430910598F40197A0F0EA8544
:10403000FB8565A176A1CB01019777FFEBCF62A548
:10404000CF010E94D2108A859B850E941A1067CDED
:10405000059709F064CDEA85FB8561A1862F90E084
:1040600093A782A796A385A3CF010E94D2108A8529
:104070009B850E948612AA85BB856FCDEA85FB854C
:10408000858596858230910509F45DC048F40097D6
:1040900069F00197B9F031102EC186E090E0E6C0DA
:1040A0008330910509F492C00597A9F7AA85BB85CD
:1040B00096961C921E929597E1E0F0E01E96FC9376
:1040C000EE931D97AA85BB8595968D919C919697A9
:1040D000019696969C938E9395979396EC90B8E064
:1040E000EB9E70011124DD24D394EA85FB8525A184
:1040F00036A184A190E00196A3E0880F991FAA95AC
:10410000E1F7E816F90694F4C7018370992782173E
:10411000930744F4458D4D254195B70180819181E8
:104120000E94610BFFEFEF1AFF0ADFCF82E090E001
:104130002430310509F0A6CCAA85BB851E969C9338
:104140008E931D979FCC8A859B850E941A103320E1
:1041500021F08A859B850E948612EA85FB8585A1D0
:1041600096A1019796A385A3E3A0F8E0EF9E7001C6
:104170001124DD24D394AA85BB8595962D913C917D
:10418000969794968C91949790E00196F3E0880F1F
:10419000991FFA95E1F7E816F906A4F4C7018370B0
:1041A00099278217930754F45D964C915D974D259E
:1041B0004195B7018D919C910E94610BBFEFEB1A65
:1041C000FB0AD9CF232B09F05DCCF0CE8A859B85E5
:1041D0000E941A10332009F412C18A859B850E941F
:1041E000861285E090E0A8CFAA85BB851D968D91AB
:1041F0009C918230910509F43CC038F083309105E0
:1042000009F46EC0059709F0F8C0EA85FB85E3A0C4
:10421000F8E0EF9E70011124AA85BB8594968C91DD
:10422000949790E00196E3E0880F991FEA95E1F7F3
:10423000E816F906CCF45D96BC905D97CD90DC90C5
:104240006E2DC6010E944007B110809545E5E0FE45
:104250004AEA482BB1104095B701C6010E94610B94
:10426000BFEFEB1AFB0AD8CF82E090E0EA85FB852E
:10427000F7CC8A859B850E941A10332021F08A850D
:104280009B850E948612AA85BB859396EC90B8E028
:10429000EB9E70011124EA85FB8584A190E00196D4
:1042A00073E0880F991F7A95E1F7E816F9060CF08C
:1042B000E2CEB58CC080D1806E2DC6010E94400731
:1042C000B11080954AEAE0FE45E5482BB1104095D3
:1042D000B701C6010E94610BFFEFEF1AFF0ADBCFA7
:1042E0008A859B850E941A10332009F4D6CE8A85D0
:1042F0009B850E94861285E090E0B8CFEA85FB8519
:10430000858596858430910508F07CC0019708F476
:104310007CC0EA85FB8516A215A20E942B2D4B01BD
:104320005C010E942B2D6E837F8388879987AA85E5
:10433000BB859596CD90DC90BFEFCB1ADB0AEA8562
:10434000FB85D6A2C5A2C501B4012BE030E040E058
:1043500050E00E94F42D70E09B012D573E4F7901F3
:10436000D901BC906E817F818885998528E030E0F5
:1043700040E050E00E94F42D8B2D90E0062E02C00C
:10438000959587950A94E2F780FF05C0B8E8CB16AB
:10439000B3E1DB0614F281E090E001C0880F6A957A
:1043A000EAF7B82AF701B0828A859B850E948612B7
:1043B000AA85BB8596961C921E9295979396BC9063
:1043C000BB0CBB0CBB0CEA85FB8584A190E001967D
:1043D00063E0880F991F6A95E1F7CB2CD12CC816A2
:1043E000D90614F1E3E8F1E081918F3F09F04ACB5F
:1043F0002BE831E02E173F07B9F73110F2CE86E0F7
:1044000090E09ACE059709F046CEE3E8F1E01192EC
:104410002EE831E02E173F07D1F7AA85BB851E96FF
:104420007C926E921D9775CFAA85BB85ED90FC900E
:104430006B2DC7010E944007AA85BB859596ED911B
:10444000FC91ED57FE4F4081311001C0409548234B
:10445000B601C7010E94610BEA85FB8585A196A183
:1044600001968B30910521F096A385A3B394ABCF31
:10447000AA85BB8596961C921E929597F7CFAA8522
:10448000BB851D968D919C913110C8C184309105DA
:1044900008F0C0C1019778F58A859B850E9477074F
:1044A000EA85FB8580A591A522A533A582179307F0
:1044B00024F431A720A793A782A7AA85BB85DE96FF
:1044C0008D919C91DF97892B09F4C8C1EA85FB8502
:1044D00083A1F8E08F9FC00111240197AA85BB85B5
:1044E00096969C938E93959797961C9297971E9667
:1044F0007C926E921D978A859B850E948612EA8522
:10450000FB8585A196A1019696A385A3F12C6F0149
:10451000F1E4CF0ED11CD6012C91EA85FB8565A173
:1045200076A1822F90E0F21608F0E1C04F2D50E006
:10453000641B750B84A190E0019633E0880F991FEE
:104540003A95E1F7681779072CF583A1F8E08F9F7A
:10455000C001112468177907ECF0AA85BB858D91FD
:104560009C91119797963C91979732039001112453
:10457000420F531FDE96ED91FC91DF97E40FF51F7C
:104580005D962C91222309F4B0C0E4914E2F409502
:104590000E94610BF394BFCFEA85FB8517A284A12B
:1045A00090E0019653E0880F991F5A95E1F796A382
:1045B00085A3768665868A859B850E948612AA8554
:1045C000BB8595968D919C919697019796969C9315
:1045D0008E939597F12C6D01B0E4CB0ED11CF601B2
:1045E0002081AA85BB8595966D917C919697F21650
:1045F00008F03AC0EF2DF0E06E0F7F1F94968C917B
:10460000949790E0019643E0880F991F4A95E1F74F
:10461000681779072CF593968C91B8E08B9FC001B1
:10462000112468177907E4F0AA85BB858D919C91C8
:10463000119797964C9197974203A00111244E0F22
:104640005F1FDC96ED91FC91DD97E40FF51F5D9601
:104650002C91222339F0E4914E2F40950E94610B5A
:10466000F394BDCF4491FACF7B01B1E0EB1AF1088E
:10467000EA85FB8582A593A5E816F9065CF0458DD1
:104680004195B701808191810E94610BF1E0EF1AA1
:10469000F108EECFAA85BB8597968C9197978F5F8F
:1046A00097968C939797082E000C990BFD01EE5B63
:1046B000FF4F20812817190609F014F497961C92D1
:1046C000EA85FB8583A1F8E08F9FC0011124D60104
:1046D0002C91821B91090197EA85FB8525A136A1C2
:1046E0002817390709F0CEC9C4C9449151CF7B01BD
:1046F000E81AF90AEA85FB8582A593A5E816F9066A
:104700005CF0458D4195B701808191810E94610BDC
:10471000F1E0EF1AF108EECFAA85BB8597968C9150
:1047200097978F5F97968C939797082E000C990B0D
:10473000FD01ED5BFF4F20812817190609F014F4E5
:1047400097961C92EA85FB8584A1F8E08F9F9001E3
:104750001124295F3F4FD6018C91820F932F911D19
:104760000196EA85FB8525A136A12817390709F0AE
:1047700089C91687058786C9432D60E08A859B8590
:104780000E94DB127FC9432D61E0F8CF41E0632D29
:104790008A859B850E941D1575C940E0F8CF41E0D0
:1047A000632D8A859B850E9464146CC940E0F8CF14
:1047B000432D60E08A859B850E94B91563C9432D0E
:1047C00061E0F8CF432D60E08A859B850E94E61862
:1047D00059C9432D61E0F8CF232D41E061E08A857E
:1047E0009B850E9499174EC9232D40E0F7CF232DBA
:1047F00041E060E0F4CF232D40E0FBCF432D61E0AA
:104800008A859B850E94D0163DC9432D60E0F8CF74
:1048100081E054C9059709F43FCE81C984309105E0
:1048200010F5019708F0C7CE8A859B850E9477070F
:10483000EA85FB8580A591A522A533A5821793075C
:1048400024F431A720A793A782A7AA85BB85DC966D
:104850008D919C91DD97892B09F09ECE1E961C931D
:104860000E931D970FC9059709F4A5CE4BC941E0DA
:1048700050E06AE070E08C819D810E94C5108981C2
:104880002B960FB6F894DEBF0FBECDBFDF91CF9150
:104890001F910F91FF90EF90DF90CF90BF90AF905E
:1048A0009F908F907F906F905F904F903F902F9050
:1048B0000895AF92BF92CF92DF92EF92FF920F9343
:1048C0001F93CF93DF93EC015B0188A541E050E09B
:1048D000882321F0EDA1FEA146895789D12CC12C56
:1048E000EE24E394F12C10E000E030E020E0B5018C
:1048F000CE010E943503CE010E94601B8111FBCFC7
:10490000F50101900020E9F7CF0101978A199B0971
:10491000DF91CF911F910F91FF90EF90DF90CF909B
:10492000BF90AF9008951F920F920FB60F9211246F
:104930002F933F934F935F936F937F938F939F93A7
:10494000AF93BF93EF93FF9386EA91E00E94BA047E
:10495000FF91EF91BF91AF919F918F917F916F9157
:104960005F914F913F912F910F900FBE0F901F902D
:1049700018951F920F920FB60F9211242F938F93B9
:104980009F93EF93FF93E091B601F091B70180817F
:10499000E091BC01F091BD0182FD1BC0908180912E
:1049A000BF018F5F8F732091C001821741F0E091AA
:1049B000BF01F0E0EA55FE4F958F8093BF01FF9154
:1049C000EF919F918F912F910F900FBE0F901F909D
:1049D00018958081F4CF1F920F920FB60F92112479
:1049E0002F933F938F939F93AF93BF9380919501A4
:1049F00090919601A0919701B09198013091940106
:104A000023E0230F2D3758F50196A11DB11D2093EA
:104A100094018093950190939601A0939701B09390
:104A200098018091900190919101A0919201B09193
:104A300093010196A11DB11D809390019093910166
:104A4000A0939201B0939301BF91AF919F918F91E9
:104A50003F912F910F900FBE0F901F90189526E851
:104A6000230F0296A11DB11DD2CF1F920F920FB638
:104A70000F9211242F933F934F935F936F937F93E4
:104A80008F939F93AF93BF93EF93FF93E0910201B6
:104A9000F09103010995FF91EF91BF91AF919F9123
:104AA0008F917F916F915F914F913F912F910F90D7
:104AB0000FBE0F901F9018951F920F920FB60F9276
:104AC00011242F933F934F935F936F937F938F9313
:104AD0009F93AF93BF93EF93FF93E0910001F09109
:104AE00001010995FF91EF91BF91AF919F918F9136
:104AF0007F916F915F914F913F912F910F900FBEDA
:104B00000F901F9018951F920F920FB60F921124BD
:104B10002F933F934F935F936F937F938F939F93C5
:104B2000AF93BF93CF93DF93EF93FF938091820175
:104B3000C0916702D0E087FF24C0109285001092D8
:104B40008400809182018F5F809382018091820135
:104B5000082E000C990B8C179D0724F4809182017C
:104B60008C30C4F18091840090918500049680344B
:104B70009C4908F47AC08091840090918500049645
:104B800076C080918201082E000C990B8C179D072E
:104B9000C4F6E09182018E2FEE0F990BFC01EE0F0F
:104BA000FF1FE80FF91FED5BFD4F808186FFC9CF26
:104BB000E09182018E2FEE0F990BFC01EE0FFF1F8B
:104BC000E80FF91FED5BFD4F808160E08F730E945D
:104BD0004905B7CF2091840030918500E091820192
:104BE0008E2FEE0F990BFC01EE0FFF1FE80FF91F40
:104BF000ED5BFD4F81819281820F931F909389001D
:104C000080938800E09182018E2FEE0F990BFC01BA
:104C1000EE0FFF1FE80FF91FED5BFD4F808186FF50
:104C200011C0E09182018E2FEE0F990BFC01EE0F67
:104C3000FF1FE80FF91FED5BFD4F808161E08F736F
:104C40000E944905FF91EF91DF91CF91BF91AF9104
:104C50009F918F917F916F915F914F913F912F9194
:104C60000F900FBE0F901F90189580E49CE99093D1
:104C70008900809388008FEF80938201E3CF1092A8
:104C8000A9011092A80188EE93E0A0E0B0E0809323
:104C9000AA019093AB01A093AC01B093AD0181E365
:104CA00091E09093A7018093A60185EC90E090930A
:104CB000B3018093B20184EC90E09093B5018093AE
:104CC000B40180EC90E09093B7018093B60181EC41
:104CD00090E09093B9018093B80182EC90E09093BA
:104CE000BB018093BA0186EC90E09093BD01809364
:104CF000BC011092BF011092C0011092C10110922C
:104D0000C2016FE471E08DEA92E00E94AD09109259
:104D100087021092860283E491E09093850280934B
:104D2000840210928D0210928E028AE080938F028C
:104D300081E08093900228E632E030939202209343
:104D4000910294E09093930280939C0221E030E0E2
:104D5000309389022093880280938A0210928B02FA
:104D600010928C029093AB026FE471E08EE792E0B8
:104D70000E94AD09809167028C3020F591E0980F78
:104D80009093670280937B0290E0FC01EE0FFF1F7F
:104D9000E80FF91FED5BFD4F88EB9BE09283818369
:104DA0006FE471E085E792E00E94AD096FE471E085
:104DB0008FE692E00E94AD096FE471E089E692E02F
:104DC0000C94AD098FEF80937B02EACFCF93DF93F2
:104DD000CDB7DEB7CC54D1090FB6F894DEBF0FBE05
:104DE000CDBF789484B5826084BD84B5816084BD74
:104DF00085B5826085BD85B5816085BD80916E0079
:104E0000816080936E0010928100809181008260A9
:104E100080938100809181008160809381008091E6
:104E200080008160809380008091B10084608093D5
:104E3000B1008091B00081608093B00080917A00D1
:104E4000846080937A0080917A00826080937A00F7
:104E500080917A00816080937A0080917A008068E6
:104E600080937A001092C10080919002882309F407
:104E7000E6C01FB7F89480919901811127C0EAE933
:104E8000F0E08491E6E8F0E09491E82FF0E0EE0F96
:104E9000FF1FEE58FF4FA591B491EC91E92321F447
:104EA00061E08AE00E94490561E08AE00E94950580
:104EB0008CB580618CBD8CB580648CBD61E08DE06B
:104EC0000E94950561E08BE00E9495058091990113
:104ED0008F5F809399011FBF61E080918F020E94D4
:104EE000950561E080918F020E9449051092990218
:104EF0001092980210929B0210929A0210919302C3
:104F000029E0129FC00111240E94A02E90939502C7
:104F100080939402812F90E0880F991F0E94A02E09
:104F2000909397028093960280919E0290919F02A7
:104F3000845A904051F084EA90E090939F028093CD
:104F40009E0288E892E00E94050650E040E063E09F
:104F500070E088E892E00E94C51047E050E061E010
:104F600070E088E892E00E94C51047E050E062E0FF
:104F700070E088E892E00E94C51050E040E064E0F4
:104F800070E088E892E00E94C51040919302415081
:104F900060E088E892E00E94900E50E040E070E00F
:104FA00060E088E892E00E94C51011E01093AC0226
:104FB00086E490E00E94A02EFC0181E090E09183C5
:104FC00080831382128214821582168217821086C1
:104FD00086E090E0908B878711A210A212A217A6FC
:104FE00016A614AA13AA15AA17AA16AA10AF15AEC8
:104FF00014AE17AE16AEDF01A05CBF4F1D921C921F
:105000003296F093AA02E093A90210E004E488E843
:10501000E82E82E0F82E8091AC02E091A902F09196
:10502000AA021817B8F4CF01109F800D911D11240A
:10503000FC01F182E0820E94EA081F5FECCF61E090
:1050400080918D020E94950561E080918E020E9400
:10505000950542CF813041F42091AB029FEF920F32
:10506000921710F413A294A3DF0190E02AE030E03D
:10507000891761F018963C932E9317971A963C93D4
:105080002E9319979F5FAC5BBF4FF2CF8823C9F077
:10509000878190854AE0489F9001499F300D1124F7
:1050A00080E094E44091AC02841770F4DF01899FA2
:1050B000A00DB11D11241C963C932E931B978F5F5E
:1050C000F1CF90E080E0E6CF10E004E4F02E01E0C4
:1050D0004091A9025091AA028091AC02181758F48D
:1050E000CA011F9D800D911D1124FC0106AB0E9479
:1050F000EA081F5FEDCF90E084E42091AC029217A4
:1051000048F4FA01989FE00DF11D1124178E168EB8
:105110009F5FF3CF90E084E42091AC02FA019217F4
:1051200068F090E061E070E0921781F0718F608F1D
:10513000138E128E9F5FEC5BFF4FF6CF989FE00DB2
:10514000F11D1124178A168A9F5FE6CF90E084E450
:105150002091AC02921740F4FA01989FE00DF11DE6
:105160001124158E9F5FF4CF10E004E48091A90212
:105170009091AA022091AC02121748F460E0109FAF
:10518000800D911D11240E94D2101F5FEFCF20E0EF
:1051900034E441E050E06091AC02261748F4FC0191
:1051A000239FE00DF11D1124578B468B2F5FF3CF0A
:1051B00020E034E460E971E04091AC02FC01241786
:1051C00068F080E02EE130E0841781F0308727839B
:1051D000328721878F5FEC5BFF4FF6CF239FE00D77
:1051E000F11D1124748763872F5FE6CF10E004E47C
:1051F0008091AC02181760F48091A9029091AA02E4
:10520000109F800D911D11240E941A101F5FF0CF76
:1052100060E083E00E94950581E394E090930301B0
:105220008093020180916900837F8460809369008C
:10523000E99AE091B601F091B70182E08083E091B4
:10524000B201F091B3011082E091B401F091B50187
:1052500080E180831092BE01E091BA01F091BB0120
:1052600086E08083E091B801F091B901808180618E
:105270008083E091B801F091B901808188608083DA
:10528000E091B801F091B901808180688083E0915C
:10529000B801F091B90180818F7D808380917B027C
:1052A0008C3008F053C061E085E00E949505809144
:1052B0007B02282F30E0F901EE0FFF1FE20FF31FF2
:1052C000ED5BFD4F9081907C956090839BE0909387
:1052D0007C0297EE90937D022CE0622F0E948E2E2E
:1052E000829FB001112430E020E0AB01420F531F38
:1052F000FA01EE0FFF1FE40FF51FED5BFD4F9081EC
:1053000096FD16C02F5F3F4F2C30310571F781118C
:105310000FC01092800082E080938100109285007F
:1053200010928400B19A80916F00826080936F0028
:10533000E0917B028E2F90E0FC01EE0FFF1FE80F43
:10534000F91FED5BFD4F80818064808383E290E0F4
:105350000E94780361E084E00E94950561E087E0A7
:105360000E94950561E088E00E94950561E082E079
:105370000E949505CE0101965C016FE471E0C501C4
:105380000E94AD090E94D20597FD0EC0863291059C
:1053900059F08B8B1C8A41E050E0BE016D5E7F4F5F
:1053A000C5010E943709EECFB50185E792E00E9462
:1053B0009708C5010E94E20884E892E00E94601B01
:1053C0008823A1F18091AC02882349F1E091A902E0
:1053D000F091AA0203851485278130854689578973
:1053E000CC24C394D12C94E0E92EF12C64E071E03C
:1053F00084E892E00E9435032091A9023091AA022C
:1054000080E094E44091AC02841780F4F901899F14
:10541000E00DF11D1124168615868F5FF3CF30E065
:1054200020E010E000E041E050E0DACF6FE471E00E
:10543000CE018D5B9F4F0E94AD096FE471E0CE01FC
:10544000CD960E94AD096FE471E0CE01C7960E942F
:10545000AD0961E088E00E94490570E060E085E701
:1054600092E00E947A0881111BC28091A401909160
:10547000A501803DE7E09E072CF401969093A501DD
:105480008093A4018091A4019091A501893E93404D
:1054900044F061E088E00E94490580E591E00E94C7
:1054A000430865E571E0C5010E94AD0970E060E068
:1054B000C5010E945A084C01C5010E94E208C401BE
:1054C00001962B969FAF8EAF2B9765E571E0C501D6
:1054D0000E94AD092B966EAD7FAD2B97C5010E9442
:1054E0005A083C01C5010E94E20863019FEFC91AF6
:1054F000D90A65E571E0C5010E94AD09B601C50193
:105500000E945A082C01C5010E94E2087201EFEFC7
:10551000EE1AFE0A65E571E0C5010E94AD09B7010A
:10552000C5010E945A081C01C5010E94E2088101C0
:105530000F5F1F4F65E571E0C5010E94AD09B8011D
:10554000C5010E945A082D969FAF8EAF2D97C501B9
:105550000E94E208A40170E060E0CE01C1960E94C2
:10556000BE09A3012B966EAD7FAD2B97CE018B9616
:105570000E94BE09A201B601CE0185960E94BE0915
:10558000A101B701CE014F960E94BE092D964EADE6
:105590005FAD2D97B801CE0149960E94BE0989A939
:1055A0009AA9009709F417C10E94832D162F072F7F
:1055B0001093A0010093A1018093A2019093A301F5
:1055C0008BA59CA5009709F40BC10E94832D6093C5
:1055D0009C0170939D0180939E0190939F01E12E09
:1055E000F02E61E086E00E949505E114F10409F0D7
:1055F000FBC060E086E00E94490567E571E0CE01EE
:1056000085960E947A08882309F43BC160E084E013
:105610000E94490561E087E00E9449056BE571E061
:10562000CE014F960E947A0861E0811109C06DE5B4
:1056300071E0CE014F960E947A08882321F060E045
:1056400082E00E9449056FE471E0CE0149960E9414
:105650007A08811112C00D8D1E8D0115110569F09A
:1056600001501109698D7A8DA80184E091E00E94B2
:10567000A230F801EC5FFE4F108280919C01909166
:105680009D010E94780380919A0190919B011C8A50
:105690001B8A1E8A1D8A188E1F8A4AE0B5010E9445
:1056A000AA2DF50101900020E9F73197AF014A19C1
:1056B0005B09B501CE0143960E948C09BE016D5E67
:1056C0007F4F8EE792E00E949708CE0143960E949A
:1056D000E2086FE571E0C5010E94AD09BE016F5C93
:1056E0007F4FC5010E94790965E571E00E94630959
:1056F00063E671E00E946309BE01655D7F4F0E9411
:10570000790965E571E00E94630967E671E00E942E
:105710006309BE016B5D7F4F0E94790965E571E009
:105720000E9463096CE671E00E946309BE01615E3C
:105730007F4F0E94790965E571E00E94630963E784
:1057400071E00E9463096EE772E00E94790965E5E5
:1057500071E00E94630968E771E00E946309FC013F
:10576000448155816081718186EA91E00E943C0408
:105770000E943B08C5010E94E208CE0149960E94A2
:10578000E208CE014F960E94E208CE0185960E9463
:10579000E208CE018B960E94E208CE01C1960E94DB
:1057A000E208CE01C7960E94E208CE01CD960E9483
:1057B000E208CE018D5B9F4F0E94E20880E090E0FE
:1057C000892B09F4DACD0E94A604882309F4D2CDEE
:1057D0000E940000CFCD10E000E080E090E0E8CE35
:1057E00060E070E0CB01F3CEFFEFEF16F10411F4AF
:1057F00061E000CFE4EDF5E0E491E33031F148F40D
:10580000E130C9F0E230E1F020E8E216F10484F77B
:10581000F0CEE73031F1E83061F1E430A9F7809162
:105820008000806280938000812F902F90938B0066
:1058300080938A00E2CE84B5806884BD17BDDDCE3A
:1058400084B5806284BD18BDD8CE80918000806808
:1058500080938000812F902F9093890080938800FF
:10586000CCCE8091B00080688093B0001093B300DC
:10587000C4CE8091B00080628093B0001093B400D9
:10588000BCCE69E571E0CE0185960E947A08882336
:1058900009F4C4CE61E084E00E94490560E0BBCE1B
:1058A00060E084E00E94490561E086E00E94950581
:1058B00060E086E00E9449051092A5011092A401C3
:1058C00060E088E00E9449058AE791E00E94430871
:1058D00068CF0F931F93CF93DF9389E692E00E94E6
:1058E000E2088FE692E00E94E20885E792E00E94DB
:1058F000E2088EE792E00E94E20883E491E0909350
:10590000850280938402C091A902D091AA022097B7
:1059100059F1FE0132972081318144E4429FC00158
:10592000439F900D1124C80FD91F8091A902909117
:10593000AA028C179D07A1F0C454D10989A99AA97C
:10594000009739F0FC01048115810E943C2FC801A9
:10595000F7CF8CA99DA9009741F30E943C2FE5CF7A
:10596000CE0102970E943C2F80919002882399F0EB
:105970009FB7F89480919901882319F08150809302
:10598000990180919901811105C08CB58F7B8CBDE7
:1059900010928F019FBF80919402909195020E9476
:1059A0003C2F80919602909197020E943C2F8DEAA5
:1059B00092E0DF91CF911F910F910C94E2088F92AA
:1059C0009F92AF92BF92CF92DF92EF92FF92CF93CE
:1059D000DF93EC01688179818A819B816115710572
:1059E0008105910521F464E279ED8BE597E02DE1E5
:1059F00033EF41E050E00E94F42D49015A019B0130
:105A0000AC01A7EAB1E40E94132E6B017C01ACEE5D
:105A1000B4EFA50194010E94212EC60ED71EE81EE8
:105A2000F91EF7FE06C081E0C81AD108E10880E837
:105A3000F80AC882D982EA82FB82C701B6019F7741
:105A4000DF91CF91FF90EF90DF90CF90BF90AF901C
:105A50009F908F9008958F929F92AF92BF92CF9216
:105A6000DF92EF92FF926091230170912401809167
:105A7000250190912601611571058105910521F49B
:105A800064E279ED8BE597E02DE133EF41E050E002
:105A90000E94F42D49015A019B01AC01A7EAB1E42F
:105AA0000E94132E6B017C01ACEEB4EFA5019401B2
:105AB0000E94212EC60ED71EE81EF91EF7FE06C054
:105AC00081E0C81AD108E10880E8F80AC0922301F1
:105AD000D0922401E0922501F0922601C701B6017F
